:020000040000FA
:100000000C945E000C9486000C9486000C94860080
:100010000C9486000C9486000C9486000C94860048
:100020000C9486000C9486000C9486000C94860038
:100030000C9486000C9486000C9486000C94860028
:100040000C9449040C9486000C9417040C94F1034E
:100050000C9486000C9486000C9486000C94860008
:100060000C9486000C948600000000080002010039
:100070000003040700000000000000000000000072
:10008000250028002B0000000000240027002A0083
:10009000040404040404040402020202020203032E
:1000A0000303030301020408102040800102040836
:1000B000102001020408102093041D0711241FBE04
:1000C000CFEFD8E0DEBFCDBF22E0AAE5B1E001C0AE
:1000D0001D92A232B207E1F711E0A0E0B1E0E6ED37
:1000E000F2E102C005900D92AA35B107D9F710E0F0
:1000F000CDE5D0E004C02197FE010E945D07CC351C
:10010000D107C9F70E9435050C945E090C940000D4
:1001100090E0FC01EC55FF4F249180579F4FFC016C
:100120008491882399F090E0880F991FFC01EA5789
:10013000FF4FA591B491FC01E458FF4F8591949134
:100140008FB7F894EC91E22BEC938FBF089508954C
:10015000AF92BF92CF92DF92EF92FF920F931F93D5
:10016000CF93DF936C017B018B01040F151FEB0113
:100170005E01AE18BF08C017D10759F06991D601CA
:10018000ED91FC910190F081E02DC6010995892B3C
:1001900079F7C501DF91CF911F910F91FF90EF90FB
:1001A000DF90CF90BF90AF900895FC01538D448DA8
:1001B000252F30E0842F90E0821B930B541710F012
:1001C000CF96089501970895FC01918D828D98171F
:1001D00061F0A28DAE0FBF2FB11D5D968C91928DF7
:1001E0009F5F9F73928F90E008958FEF9FEF089528
:1001F0002FB7F89480915F0190916001A091610107
:10020000B09162012FBF80936B0190936C01A0931A
:100210006D01B0936E0183E691E00E94E40097FFC8
:1002200026C02FB7F89480915F0190916001A09152
:100230006101B09162012FBF40916B0150916C013F
:1002400060916D0170916E01841B950BA60BB70B2D
:1002500040916701509168016091690170916A0154
:1002600084179507A607B707B0F28FEF9FEF0895A1
:10027000FC01918D828D981731F0828DE80FF11D70
:10028000858D90E008958FEF9FEF0895FC01918D8B
:10029000228D892F90E0805C9F4F821B91098F7384
:1002A0009927089583E691E00E94460121E0892B79
:1002B00009F420E0822F089580E090E0892B29F056
:1002C0000E94520181110C9400000895FC01A48D3C
:1002D000A80FB92FB11DA35ABF4F2C91848D90E068
:1002E00001968F739927848FA689B7892C93A0894B
:1002F000B1898C91837080648C93938D848D9813D5
:1003000006C00288F389E02D80818F7D8083089567
:10031000EF92FF920F931F93CF93DF93EC0181E055
:10032000888F9B8D8C8D98131AC0E889F9898081FC
:1003300085FF15C09FB7F894EE89FF896083E8892F
:10034000F98980818370806480839FBF81E090E021
:10035000DF91CF911F910F91FF90EF900895F62EAE
:100360000B8D10E00F5F1F4F0F731127E02E8C8D48
:100370008E110CC00FB607FCFACFE889F98980818D
:1003800085FFF5CFCE010E946601F1CFEB8DEC0F1A
:10039000FD2FF11DE35AFF4FF0829FB7F8940B8FAA
:1003A000EA89FB8980818062CFCFCF93DF93EC0114
:1003B000888D8823B9F0AA89BB89E889F9898C914D
:1003C00085FD03C0808186FD0DC00FB607FCF7CF09
:1003D0008C9185FFF2CF808185FFEDCFCE010E9409
:1003E0006601E9CFDF91CF91089590E0FC01E859D3
:1003F000FF4F2491FC01EC55FF4F3491FC01E05775
:10040000FF4FE491EE23C9F0222339F0233001F1AC
:10041000A8F4213019F1223029F1F0E0EE0FFF1F8E
:10042000E458FF4FA591B4918FB7F894EC91611106
:1004300026C030953E233C938FBF08952730A9F006
:100440002830C9F0243049F7809180008F7D03C0A7
:10045000809180008F7780938000DFCF84B58F7785
:1004600084BDDBCF84B58F7DFBCF8091B0008F77CB
:100470008093B000D2CF8091B0008F7DF9CF3E2B1A
:10048000DACF3FB7F89480915B0190915C01A09125
:100490005D01B0915E0126B5A89B05C02F3F19F004
:1004A0000196A11DB11D3FBFBA2FA92F982F8827F4
:1004B000BC01CD01620F711D811D911D42E0660FCF
:1004C000771F881F991F4A95D1F7089590E080E023
:1004D0000895CF93DF93EC0160E08E810E94F501D7
:1004E00061E08E810E94F50160E08E810E94F5013D
:1004F0008BE891E00197F1F7DF91CF910895CF92CA
:10050000DF92EF92FF920F931F93CF93DF936C01D3
:100510007C0187E0E80EF11CD0E0C0E0062F10E07F
:10052000B8010C2E02C0759567950A94E2F76170C8
:10053000F70181917F010E94F5012196C430D10518
:1005400079F7C601DF91CF911F910F91FF90EF9046
:10055000DF90CF900C946902CF92DF92EF92FF92DE
:100560000F931F93CF93DF93EC01F62E642F8C81B2
:100570000E94F5018D818F3F19F060E00E94F50126
:100580000F2D10E08F8584FF25C06E0187E0C80E17
:10059000D11CF12CE12CB8010E2C02C07595679589
:1005A0000A94E2F76170F60181916F010E94F501F2
:1005B000FFEFEF1AFF0A88E0E816F10461F7CE01B9
:1005C000DF91CF911F910F91FF90EF90DF90CF902F
:1005D0000C946902B80184E0759567958A95E1F7F6
:1005E000CE010E947F026F2DCE01DF91CF911F912E
:1005F0000F91FF90EF90DF90CF900C947F0240E03E
:10060000682F80E092E00C94AC02CF93DF938230AD
:1006100029F490910F02986090930F028093130237
:100620001092140280E48093150280E180931602F8
:1006300080E580931702809104020E9488008091D7
:1006400005028F3F11F00E948800809106020E94EF
:100650008800C0E0D2E09E012050324080910F021D
:1006600084FD0AC084E090E02196281739073CF405
:100670008E810E948800EFCF88E090E0F5CF8BE379
:100680009DE00197F1F760E0809104020E94F5017E
:1006900060E0809106020E94F501809105028F3F83
:1006A00019F060E00E94F50180910F0284FD39C0CD
:1006B00063E080E092E00E947F02CBE4D6E4CE01CA
:1006C0000197F1F763E080E092E00E947F022197BA
:1006D000F1F763E080E092E00E947F0283E592E020
:1006E0000197F1F762E080E092E00E947F02809142
:1006F0000F0280620E94FF0284E0809310028CE06F
:100700000E94FF0281E00E94FF028BE39FE10197BC
:10071000F1F782E08093110286E0DF91CF910C9493
:10072000FF0280620E94FF028BE496E40197F1F7DA
:1007300080910F0280620E94FF0283E592E00197A0
:10074000F1F780910F0280620E94FF02D0CFE0910A
:100750001302E23048F4E150F0E0E050FE4F8489AB
:100760008E5F80680C94FF02E1E0F6CF41E00E94CA
:10077000AC0281E090E00895FC0101900020E9F7CF
:100780003197AF01481B590BBC0180E092E00C94FB
:10079000A8000F931F93CF93DF93EC018881998179
:1007A000009759F02A813B812617370730F081E006
:1007B000DF91CF911F910F9108958B016F5F7F4F54
:1007C0000E948808009759F0998388831B830A83C5
:1007D0002C813D81232B59F7FC011082E8CF80E06A
:1007E000E7CF1F920F920FB60F9211242F933F93D2
:1007F0004F935F936F937F938F939F93AF93BF9329
:10080000EF93FF9383E691E00E946601FF91EF91E1
:10081000BF91AF919F918F917F916F915F914F9118
:100820003F912F910F900FBE0F901F9018951F9220
:100830000F920FB60F9211242F938F939F93EF93E4
:10084000FF93E0917301F09174018081E09179014F
:10085000F0917A0182FD1BC0908180917C018F5FB5
:100860008F7320917D01821741F0E0917C01F0E0CF
:10087000ED59FE4F958F80937C01FF91EF919F91F1
:100880008F912F910F900FBE0F901F901895808120
:10089000F4CF1F920F920FB60F9211242F933F9314
:1008A0008F939F93AF93BF9380915F01909160016D
:1008B000A0916101B091620130915A0123E0230FB0
:1008C0002D3758F50196A11DB11D20935A01809333
:1008D0005F0190936001A0936101B09362018091E8
:1008E0005B0190915C01A0915D01B0915E01019668
:1008F000A11DB11D80935B0190935C01A0935D01EC
:10090000B0935E01BF91AF919F918F913F912F91D5
:100910000F900FBE0F901F90189526E8230F029698
:10092000A11DB11DD2CF109266011092650188EE13
:1009300093E0A0E0B0E08093670190936801A093FA
:100940006901B0936A018AE091E090936401809319
:10095000630185EC90E09093700180936F0184ECCB
:1009600090E0909372018093710180EC90E09093FD
:1009700074018093730181EC90E0909376018093F1
:10098000750182EC90E0909378018093770186EC7A
:1009900090E090937A018093790110927C011092FB
:1009A0007D0110927E0110927F0110921902109227
:1009B000180210921B0210921A0210921D0210923D
:1009C0001C0270E060E088E192E00E94C90320917F
:1009D00018023091190281113EC02115310519F01C
:1009E000C9010E94FF07109219021092180210927A
:1009F0001D0210921C0210921B0210921A021092F9
:100A00000302109202028CE191E090930102809324
:100A100000028CE0809304028FEF809305028BE04C
:100A20008093060285E08093070284E080930802A9
:100A300083E08093090282E080930A0210920B0205
:100A400010920C0210920D0210920E0210920F02E0
:100A500081E00C94050310921D0210921C0264E3C5
:100A600071E0C9010E945709CACFCF93DF93CDB778
:100A7000DEB728970FB6F894DEBF0FBECDBF7894CF
:100A800084B5826084BD84B5816084BD85B5826093
:100A900085BD85B5816085BD80916E008160809344
:100AA0006E001092810080918100826080938100AD
:100AB00080918100816080938100809180008160BD
:100AC000809380008091B10084608093B100809118
:100AD000B00081608093B00080917A008460809340
:100AE0007A0080917A00826080937A0080917A0007
:100AF000816080937A0080917A00806880937A0088
:100B00001092C100E0917301F091740182E0808342
:100B1000E0916F01F09170011082E0917101F0910C
:100B200072018FEC808310927B01E0917701F0914C
:100B3000780186E08083E0917501F09176018081F3
:100B400080618083E0917501F091760180818860F9
:100B50008083E0917501F0917601808180688083C7
:100B6000E0917501F091760180818F7D80838AE02C
:100B70000E94880089E00E94880082E00E940503AC
:100B800084E291E00E94BC030E94A7038AE291E004
:100B90000E94BC0332E7232E30E0332E15E09BE3A6
:100BA000A92E9FE1B92E20E0822E20E0922E0E94F5
:100BB00041026B017C018CEA482E8DE0582E612C9D
:100BC000712C0E9441026C197D098E099F09683EB3
:100BD000734081059105A8F321E0421A510861088C
:100BE000710888EEC80E83E0D81EE11CF11C411488
:100BF00051046104710429F781E00E94FF02C501DC
:100C00000197F1F760E08AE00E94F50160E089E079
:100C10000E94F50183E691E00E944601181619062C
:100C20000CF0D3C01A8219821C821B821E821D8284
:100C300070E060E0CE0101960E94C90329813A81EB
:100C400081112FC02115310519F0C9010E94FF073C
:100C50001A8219821E821D821C821B820E94F80049
:100C600097FD27C08A30910521F18F831886ED808A
:100C7000FE80FFEFEF1AFF0AB701CE0101960E9436
:100C8000C903882359F329813A818D819E81BE0150
:100C9000695F7F4F820F931F0E945709FE82ED828A
:100CA000DDCF1E821D8264E371E0C9010E945709F5
:100CB000D5CF8091180290911902009709F454C081
:100CC00069817A816115710509F44CC040911A025D
:100CD00050911B022D813E814217530708F442C0F8
:100CE0000E9457098D819E8190931D0280931C0262
:100CF0001E821D8289819A81009711F00E94FF0750
:100D000060901C0270901D02E0901802F090190291
:100D10006114710441F065E371E0C7010E944E095E
:100D2000892B09F47FC0A301B70180E092E00E9403
:100D3000A8000E94A7038DE391E00E94BC038AE013
:100D40000E948800F1018491833009F44FC018F5A6
:100D5000813099F1823009F444C060E08AE00E9459
:100D6000F5012FC00E94FF0789819A819093190293
:100D7000809318028B819C8190931B0280931A02AE
:100D80008D819E8190931D0280931C021A8219828C
:100D90001C821B82ADCF8730A9F18830D9F1843015
:100DA000E1F680918000806280938000E5E0F0E0D1
:100DB000F0938B00E0938A0004C084B5806884BD02
:100DC00017BD60E089E00E94F5018114910409F4E7
:100DD000EECE0E945201882309F4E9CE0E94000061
:100DE000DECE84B5806284BD18BDEBCF80918000DB
:100DF00080688093800085E090E0909389008093E4
:100E00008800DFCF8091B00080688093B00010939D
:100E1000B300D7CF8091B00080628093B000109370
:100E2000B400CFCF86E491E00E94BC030E94A703E8
:100E30008BE491E00E94BC03C8CF8091180290918E
:100E40001902009711F00C94FF0708952F923F921A
:100E50004F925F926F927F928F929F92AF92BF92CA
:100E6000CF92DF92EF92FF920F931F93CF93DF9376
:100E7000CDB7DEB7CA1BDB0B0FB6F894DEBF0FBED3
:100E8000CDBF09942A88398848885F846E847D8420
:100E90008C849B84AA84B984C884DF80EE80FD8022
:100EA0000C811B81AA81B981CE0FD11D0FB6F89498
:100EB000DEBF0FBECDBFED010895EE0FFF1F059001
:100EC000F491E02D09940F931F93CF93DF93823019
:100ED000910510F482E090E0E0912002F09121026F
:100EE00030E020E0B0E0A0E0309799F42115310522
:100EF00009F44AC0281B390B24303105D8F58A8102
:100F00009B816115710589F1FB0193838283FE0149
:100F100011C0408151810281138148175907E0F0C7
:100F20004817590799F4109761F012960C9312978D
:100F300013961C933296CF01DF91CF911F910F91A1
:100F400008950093200210932102F4CF211531055A
:100F500051F04217530738F0A901DB019A01BD0196
:100F6000DF01F801C1CFEF01F9CF90932102809307
:100F70002002CDCFFE01E20FF31F81939193225007
:100F8000310939832883D7CF20911E0230911F0267
:100F9000232B41F4209102013091030130931F0271
:100FA00020931E022091000130910101211531058D
:100FB00041F42DB73EB74091040150910501241B27
:100FC000350BE0911E02F0911F02E217F307A0F427
:100FD0002E1B3F0B2817390778F0AC014E5F5F4F8F
:100FE0002417350748F04E0F5F1F50931F024093A0
:100FF0001E02819391939FCFF0E0E0E09CCFCF93CE
:10100000DF930097E9F0FC01329713821282A091DE
:101010002002B0912102ED0130E020E01097A1F410
:1010200020813181820F931F20911E0230911F0277
:101030002817390709F061C0F0931F02E0931E02E0
:10104000DF91CF910895EA01CE17DF07E8F54A81D5
:101050005B819E0141155105B1F7E901FB83EA83EC
:1010600049915991C40FD51FEC17FD0761F4808198
:1010700091810296840F951FE9019983888382816B
:1010800093819B838A83F0E0E0E012968D919C919E
:1010900013970097B9F52D913C911197CD010296C8
:1010A000820F931F20911E0230911F0228173907CB
:1010B00039F6309751F51092210210922002B09328
:1010C0001F02A0931E02BCCFD383C28340815181F3
:1010D000840F951FC817D90761F44E5F5F4F888151
:1010E0009981480F591F518340838A819B81938343
:1010F00082832115310509F0B0CFF0932102E093EE
:1011000020029ECFFD01DC01C0CF13821282D7CF17
:10111000B0E0A0E0EEE8F8E00C9428078C0100971E
:1011200051F4CB010E9463078C01C801CDB7DEB733
:10113000E0E10C944407FC01E60FF71F9C012250EC
:101140003109E217F30708F49DC0D901CD91DC9174
:101150001197C617D70798F0C530D10530F3CE01E7
:1011600004978617970708F3C61BD70B2297C193DE
:10117000D1936D937C93CF010E94FF07D6CF5B0183
:10118000AC1ABD0A4C018C0E9D1EA0912002B0919C
:101190002102512C412CF12CE12C109731F580913A
:1011A0001E0290911F028815990509F05CC0461631
:1011B000570608F058C080910001909101010097F6
:1011C00041F48DB79EB74091040150910501841BF5
:1011D000950BE817F90708F055C0F0931F02E0934C
:1011E0001E02F90171836083A0CF8D919C911197AC
:1011F00012966C90129713967C901397A815B905C8
:1012000059F56C0142E0C40ED11CCA14DB0420F174
:10121000AC014A195B09DA011296159780F06282D7
:10122000738251834083D9016D937C93E114F1045F
:1012300071F0D7011396FC93EE93129776CF229616
:101240008C0F9D1FF90191838083F301EFCFF09301
:101250002102E093200269CF4816590608F42C01B8
:101260007D01D3019ACFCB010E9463077C010097D7
:1012700049F0AE01B8010E944509C8010E94FF076C
:10128000870153CF10E000E050CFFB01DC0102C02A
:1012900001900D9241505040D8F70895FB01DC01B8
:1012A0008D91019080190110D9F3990B0895FB01DC
:1012B000DC0101900D920020E1F7089510E0CDE5EA
:1012C000D0E004C0FE010E945D072196CE35D10713
:1012D000C9F7F894FFCF0000220280000000000050
:1012E0008801A800D500D5014601E40038010000BE
:1012F0000000B603A8006602A7002E2E2E4F6E0037
:101300005374616E6462792E2E2E00556E6B6E6F73
:10131000776E006465746563746564004661636537
:10132000006E6F74207265636F676E697A65640022
:107E0000112484B714BE81FFF0D085E080938100F7
:107E100082E08093C00088E18093C10086E0809377
:107E2000C20080E18093C4008EE0C9D0259A86E02C
:107E300020E33CEF91E0309385002093840096BBD3
:107E4000B09BFECF1D9AA8958150A9F7CC24DD24C4
:107E500088248394B5E0AB2EA1E19A2EF3E0BF2EE7
:107E6000A2D0813461F49FD0082FAFD0023811F036
:107E7000013811F484E001C083E08DD089C08234E0
:107E800011F484E103C0853419F485E0A6D080C0E4
:107E9000853579F488D0E82EFF2485D0082F10E0AE
:107EA000102F00270E291F29000F111F8ED06801E7
:107EB0006FC0863521F484E090D080E0DECF843638
:107EC00009F040C070D06FD0082F6DD080E0C81688
:107ED00080E7D80618F4F601B7BEE895C0E0D1E017
:107EE00062D089930C17E1F7F0E0CF16F0E7DF06D8
:107EF00018F0F601B7BEE89568D007B600FCFDCFD4
:107F0000A601A0E0B1E02C9130E011968C91119780
:107F100090E0982F8827822B932B1296FA010C0160
:107F200087BEE89511244E5F5F4FF1E0A038BF0790
:107F300051F7F601A7BEE89507B600FCFDCF97BE46
:107F4000E89526C08437B1F42ED02DD0F82E2BD052
:107F50003CD0F601EF2C8F010F5F1F4F84911BD097
:107F6000EA94F801C1F70894C11CD11CFA94CF0C13
:107F7000D11C0EC0853739F428D08EE10CD085E9AC
:107F80000AD08FE07ACF813511F488E018D01DD067
:107F900080E101D065CF982F8091C00085FFFCCF94
:107FA0009093C60008958091C00087FFFCCF809118
:107FB000C00084FD01C0A8958091C6000895E0E648
:107FC000F0E098E1908380830895EDDF803219F02E
:107FD00088E0F5DFFFCF84E1DECF1F93182FE3DFCA
:107FE0001150E9F7F2DF1F91089580E0E8DFEE27F6
:047FF000FF270994CA
:027FFE00040479
:00000001FF
